{
  "_format": "hh-sol-artifact-1",
  "contractName": "Buyer",
  "sourceName": "contracts/Buyer.sol",
  "abi": [
    {
      "inputs": [
        {
          "internalType": "address",
          "name": "_owner",
          "type": "address"
        }
      ],
      "stateMutability": "nonpayable",
      "type": "constructor"
    },
    {
      "anonymous": false,
      "inputs": [
        {
          "components": [
            {
              "internalType": "uint256",
              "name": "id",
              "type": "uint256"
            },
            {
              "internalType": "string",
              "name": "name",
              "type": "string"
            },
            {
              "internalType": "address",
              "name": "owner",
              "type": "address"
            },
            {
              "internalType": "uint256",
              "name": "quantity",
              "type": "uint256"
            }
          ],
          "indexed": false,
          "internalType": "struct ItemFactory.Item",
          "name": "_item",
          "type": "tuple"
        }
      ],
      "name": "BoughtItem",
      "type": "event"
    },
    {
      "anonymous": false,
      "inputs": [
        {
          "indexed": false,
          "internalType": "string",
          "name": "_name",
          "type": "string"
        },
        {
          "indexed": false,
          "internalType": "address",
          "name": "_owner",
          "type": "address"
        },
        {
          "indexed": false,
          "internalType": "uint256",
          "name": "_itemId",
          "type": "uint256"
        },
        {
          "indexed": false,
          "internalType": "uint256",
          "name": "quantity",
          "type": "uint256"
        }
      ],
      "name": "ItemCreated",
      "type": "event"
    },
    {
      "anonymous": false,
      "inputs": [
        {
          "indexed": false,
          "internalType": "uint256",
          "name": "_itemId",
          "type": "uint256"
        },
        {
          "indexed": false,
          "internalType": "address",
          "name": "_oldOwner",
          "type": "address"
        },
        {
          "indexed": false,
          "internalType": "address",
          "name": "_newOwner",
          "type": "address"
        }
      ],
      "name": "OwnershipChange",
      "type": "event"
    },
    {
      "inputs": [
        {
          "components": [
            {
              "internalType": "uint256",
              "name": "id",
              "type": "uint256"
            },
            {
              "internalType": "string",
              "name": "name",
              "type": "string"
            },
            {
              "internalType": "address",
              "name": "owner",
              "type": "address"
            },
            {
              "internalType": "uint256",
              "name": "quantity",
              "type": "uint256"
            }
          ],
          "internalType": "struct ItemFactory.Item",
          "name": "_item",
          "type": "tuple"
        }
      ],
      "name": "addItem",
      "outputs": [],
      "stateMutability": "nonpayable",
      "type": "function"
    },
    {
      "inputs": [],
      "name": "getExistingItems",
      "outputs": [
        {
          "components": [
            {
              "internalType": "uint256",
              "name": "id",
              "type": "uint256"
            },
            {
              "internalType": "string",
              "name": "name",
              "type": "string"
            },
            {
              "internalType": "address",
              "name": "owner",
              "type": "address"
            },
            {
              "internalType": "uint256",
              "name": "quantity",
              "type": "uint256"
            }
          ],
          "internalType": "struct ItemFactory.Item[]",
          "name": "",
          "type": "tuple[]"
        }
      ],
      "stateMutability": "view",
      "type": "function"
    },
    {
      "inputs": [],
      "name": "getItems",
      "outputs": [
        {
          "components": [
            {
              "internalType": "uint256",
              "name": "id",
              "type": "uint256"
            },
            {
              "internalType": "string",
              "name": "name",
              "type": "string"
            },
            {
              "internalType": "address",
              "name": "owner",
              "type": "address"
            },
            {
              "internalType": "uint256",
              "name": "quantity",
              "type": "uint256"
            }
          ],
          "internalType": "struct ItemFactory.Item[]",
          "name": "",
          "type": "tuple[]"
        }
      ],
      "stateMutability": "view",
      "type": "function"
    }
  ],
  "bytecode": "0x6080604052600060015534801561001557600080fd5b50604051610bd7380380610bd783398101604081905261003491610059565b600380546001600160a01b0319166001600160a01b0392909216919091179055610089565b60006020828403121561006b57600080fd5b81516001600160a01b038116811461008257600080fd5b9392505050565b610b3f806100986000396000f3fe608060405234801561001057600080fd5b50600436106100415760003560e01c80631893851314610046578063410d59cc1461005b578063561496ba14610079575b600080fd5b6100596100543660046106b4565b610081565b005b610063610351565b6040516100709190610832565b60405180910390f35b61006361046f565b60005b60045481101561025d576020808301516040516100a19201610894565b60405160208183030381529060405280519060200120600482815481106100ca576100ca6108b0565b90600052602060002090600402016001016040516020016100eb9190610900565b60405160208183030381529060405280519060200120148015610149575081604001516001600160a01b03166004828154811061012a5761012a6108b0565b60009182526020909120600260049092020101546001600160a01b0316145b1561024b576101b16040518060400160405280601981526020017f63757272656e74206275796572207175616e74697479203d20000000000000008152506004838154811061019a5761019a6108b0565b906000526020600020906004020160030154610584565b6000600482815481106101c6576101c66108b0565b90600052602060002090600402016003015490508060016101e7919061098c565b600483815481106101fa576101fa6108b0565b9060005260206000209060040201600301819055507ff7a600236d5efb37da0985b9fbae52c762c2b9b9ae84d2841d01ff01909961c58360405161023e91906109a5565b60405180910390a1505050565b80610255816109bf565b915050610084565b50600480546001810182556000829052825191027f8a35acfbc15ff81a39ae7d344fd709f28e8600b4aa8c65c6b64bfe7fe36bd19b810191825560208301518392917f8a35acfbc15ff81a39ae7d344fd709f28e8600b4aa8c65c6b64bfe7fe36bd19c01906102cc9082610a27565b506040828101516002830180547fffffffffffffffffffffffff0000000000000000000000000000000000000000166001600160a01b03909216919091179055606090920151600390910155517ff7a600236d5efb37da0985b9fbae52c762c2b9b9ae84d2841d01ff01909961c5906103469083906109a5565b60405180910390a150565b60606004805480602002602001604051908101604052809291908181526020016000905b828210156104665783829060005260206000209060040201604051806080016040529081600082015481526020016001820180546103b2906108c6565b80601f01602080910402602001604051908101604052809291908181526020018280546103de906108c6565b801561042b5780601f106104005761010080835404028352916020019161042b565b820191906000526020600020905b81548152906001019060200180831161040e57829003601f168201915b505050918352505060028201546001600160a01b03166020808301919091526003909201546040909101529082526001929092019101610375565b50505050905090565b60606000805480602002602001604051908101604052809291908181526020016000905b828210156104665783829060005260206000209060040201604051806080016040529081600082015481526020016001820180546104d0906108c6565b80601f01602080910402602001604051908101604052809291908181526020018280546104fc906108c6565b80156105495780601f1061051e57610100808354040283529160200191610549565b820191906000526020600020905b81548152906001019060200180831161052c57829003601f168201915b505050918352505060028201546001600160a01b03166020808301919091526003909201546040909101529082526001929092019101610493565b6105f7828260405160240161059a929190610ae7565b60408051601f198184030181529190526020810180517bffffffffffffffffffffffffffffffffffffffffffffffffffffffff167fb60e72cc000000000000000000000000000000000000000000000000000000001790526105fb565b5050565b61060481610607565b50565b60006a636f6e736f6c652e6c6f679050600080835160208501845afa505050565b634e487b7160e01b600052604160045260246000fd5b6040516080810167ffffffffffffffff8111828210171561066157610661610628565b60405290565b604051601f8201601f1916810167ffffffffffffffff8111828210171561069057610690610628565b604052919050565b80356001600160a01b03811681146106af57600080fd5b919050565b600060208083850312156106c757600080fd5b823567ffffffffffffffff808211156106df57600080fd5b90840190608082870312156106f357600080fd5b6106fb61063e565b82358152838301358281111561071057600080fd5b8301601f8101881361072157600080fd5b80358381111561073357610733610628565b610745601f8201601f19168701610667565b9350808452888682840101111561075b57600080fd5b808683018786013760008682860101525050818482015261077e60408401610698565b6040820152606083013560608201528094505050505092915050565b60005b838110156107b557818101518382015260200161079d565b50506000910152565b600081518084526107d681602086016020860161079a565b601f01601f19169290920160200192915050565b80518252600060208201516080602085015261080960808501826107be565b90506001600160a01b036040840151166040850152606083015160608501528091505092915050565b6000602080830181845280855180835260408601915060408160051b870101925083870160005b8281101561088757603f198886030184526108758583516107ea565b94509285019290850190600101610859565b5092979650505050505050565b600082516108a681846020870161079a565b9190910192915050565b634e487b7160e01b600052603260045260246000fd5b600181811c908216806108da57607f821691505b6020821081036108fa57634e487b7160e01b600052602260045260246000fd5b50919050565b600080835461090e816108c6565b60018281168015610926576001811461093b5761096a565b60ff198416875282151583028701945061096a565b8760005260208060002060005b858110156109615781548a820152908401908201610948565b50505082870194505b50929695505050505050565b634e487b7160e01b600052601160045260246000fd5b8082018082111561099f5761099f610976565b92915050565b6020815260006109b860208301846107ea565b9392505050565b6000600182016109d1576109d1610976565b5060010190565b601f821115610a2257600081815260208120601f850160051c810160208610156109ff5750805b601f850160051c820191505b81811015610a1e57828155600101610a0b565b5050505b505050565b815167ffffffffffffffff811115610a4157610a41610628565b610a5581610a4f84546108c6565b846109d8565b602080601f831160018114610a8a5760008415610a725750858301515b600019600386901b1c1916600185901b178555610a1e565b600085815260208120601f198616915b82811015610ab957888601518255948401946001909101908401610a9a565b5085821015610ad75787850151600019600388901b60f8161c191681555b5050505050600190811b01905550565b604081526000610afa60408301856107be565b9050826020830152939250505056fea2646970667358221220b34a769b8b5f9f5a34aa3142da76773328c36a5c3a034b04af97c2860cca416a64736f6c63430008130033",
  "linkReferences": {},
  "deployedLinkReferences": {}
}