{
  "_format": "hh-sol-artifact-1",
  "contractName": "ItemFactory",
  "sourceName": "contracts/Item.sol",
  "abi": [
    {
      "anonymous": false,
      "inputs": [
        {
          "indexed": false,
          "internalType": "string",
          "name": "_name",
          "type": "string"
        },
        {
          "indexed": false,
          "internalType": "address",
          "name": "_owner",
          "type": "address"
        },
        {
          "indexed": false,
          "internalType": "uint256",
          "name": "_itemId",
          "type": "uint256"
        },
        {
          "indexed": false,
          "internalType": "uint256",
          "name": "quantity",
          "type": "uint256"
        }
      ],
      "name": "ItemCreated",
      "type": "event"
    },
    {
      "anonymous": false,
      "inputs": [
        {
          "indexed": false,
          "internalType": "uint256",
          "name": "_itemId",
          "type": "uint256"
        },
        {
          "indexed": false,
          "internalType": "address",
          "name": "_oldOwner",
          "type": "address"
        },
        {
          "indexed": false,
          "internalType": "address",
          "name": "_newOwner",
          "type": "address"
        }
      ],
      "name": "OwnershipChange",
      "type": "event"
    },
    {
      "inputs": [],
      "name": "getExistingItems",
      "outputs": [
        {
          "components": [
            {
              "internalType": "uint256",
              "name": "id",
              "type": "uint256"
            },
            {
              "internalType": "string",
              "name": "name",
              "type": "string"
            },
            {
              "internalType": "address",
              "name": "owner",
              "type": "address"
            },
            {
              "internalType": "uint256",
              "name": "quantity",
              "type": "uint256"
            }
          ],
          "internalType": "struct ItemFactory.Item[]",
          "name": "",
          "type": "tuple[]"
        }
      ],
      "stateMutability": "view",
      "type": "function"
    }
  ],
  "bytecode": "0x6080604052600060015534801561001557600080fd5b506102e5806100256000396000f3fe608060405234801561001057600080fd5b506004361061002b5760003560e01c8063561496ba14610030575b600080fd5b61003861004e565b6040516100459190610179565b60405180910390f35b60606000805480602002602001604051908101604052809291908181526020016000905b828210156101705783829060005260206000209060040201604051806080016040529081600082015481526020016001820180546100af9061025c565b80601f01602080910402602001604051908101604052809291908181526020018280546100db9061025c565b80156101285780601f106100fd57610100808354040283529160200191610128565b820191906000526020600020905b81548152906001019060200180831161010b57829003601f168201915b5050509183525050600282015473ffffffffffffffffffffffffffffffffffffffff166020808301919091526003909201546040909101529082526001929092019101610072565b50505050905090565b60006020808301818452808551808352604092508286019150828160051b8701018488016000805b8481101561024d57603f198a8503018652825160808151865289820151818b880152805180838901528592505b808310156101ec578183018c015188840160a00152918b01916101ce565b60a092508583828a0101528a840151915061021e8b89018373ffffffffffffffffffffffffffffffffffffffff169052565b606093840151938801939093525096890196601f91909101601f191690940190930192918701916001016101a1565b50919998505050505050505050565b600181811c9082168061027057607f821691505b6020821081036102a9577f4e487b7100000000000000000000000000000000000000000000000000000000600052602260045260246000fd5b5091905056fea264697066735822122048f42230b4814f4d13dfa62c0e0983fbc6f88fb41b082f3782465495068156dd64736f6c63430008130033",
  "linkReferences": {},
  "deployedLinkReferences": {}
}