{
  "_format": "hh-sol-artifact-1",
  "contractName": "Marketplace",
  "sourceName": "contracts/Marketplace.sol",
  "abi": [
    {
      "anonymous": false,
      "inputs": [
        {
          "indexed": false,
          "internalType": "string",
          "name": "_name",
          "type": "string"
        },
        {
          "indexed": false,
          "internalType": "address",
          "name": "_owner",
          "type": "address"
        },
        {
          "indexed": false,
          "internalType": "uint256",
          "name": "_itemId",
          "type": "uint256"
        },
        {
          "indexed": false,
          "internalType": "uint256",
          "name": "quantity",
          "type": "uint256"
        }
      ],
      "name": "ItemCreated",
      "type": "event"
    },
    {
      "anonymous": false,
      "inputs": [
        {
          "indexed": false,
          "internalType": "uint256",
          "name": "_itemId",
          "type": "uint256"
        },
        {
          "indexed": false,
          "internalType": "address",
          "name": "_oldOwner",
          "type": "address"
        },
        {
          "indexed": false,
          "internalType": "address",
          "name": "_newOwner",
          "type": "address"
        }
      ],
      "name": "OwnershipChange",
      "type": "event"
    },
    {
      "inputs": [],
      "name": "bBuyer",
      "outputs": [
        {
          "internalType": "bool",
          "name": "",
          "type": "bool"
        }
      ],
      "stateMutability": "view",
      "type": "function"
    },
    {
      "inputs": [],
      "name": "bSupplier",
      "outputs": [
        {
          "internalType": "bool",
          "name": "",
          "type": "bool"
        }
      ],
      "stateMutability": "view",
      "type": "function"
    },
    {
      "inputs": [],
      "name": "becomeBuyer",
      "outputs": [],
      "stateMutability": "nonpayable",
      "type": "function"
    },
    {
      "inputs": [],
      "name": "becomeSupplier",
      "outputs": [],
      "stateMutability": "nonpayable",
      "type": "function"
    },
    {
      "inputs": [
        {
          "internalType": "address",
          "name": "_supplier",
          "type": "address"
        },
        {
          "internalType": "string",
          "name": "_itemName",
          "type": "string"
        }
      ],
      "name": "buyItem",
      "outputs": [],
      "stateMutability": "nonpayable",
      "type": "function"
    },
    {
      "inputs": [
        {
          "internalType": "string",
          "name": "_name",
          "type": "string"
        }
      ],
      "name": "createItem",
      "outputs": [],
      "stateMutability": "nonpayable",
      "type": "function"
    },
    {
      "inputs": [],
      "name": "getAllItems",
      "outputs": [
        {
          "components": [
            {
              "internalType": "uint256",
              "name": "id",
              "type": "uint256"
            },
            {
              "internalType": "string",
              "name": "name",
              "type": "string"
            },
            {
              "internalType": "address",
              "name": "owner",
              "type": "address"
            },
            {
              "internalType": "uint256",
              "name": "quantity",
              "type": "uint256"
            }
          ],
          "internalType": "struct ItemFactory.Item[]",
          "name": "",
          "type": "tuple[]"
        }
      ],
      "stateMutability": "view",
      "type": "function"
    },
    {
      "inputs": [],
      "name": "getExistingItems",
      "outputs": [
        {
          "components": [
            {
              "internalType": "uint256",
              "name": "id",
              "type": "uint256"
            },
            {
              "internalType": "string",
              "name": "name",
              "type": "string"
            },
            {
              "internalType": "address",
              "name": "owner",
              "type": "address"
            },
            {
              "internalType": "uint256",
              "name": "quantity",
              "type": "uint256"
            }
          ],
          "internalType": "struct ItemFactory.Item[]",
          "name": "",
          "type": "tuple[]"
        }
      ],
      "stateMutability": "view",
      "type": "function"
    },
    {
      "inputs": [
        {
          "internalType": "address",
          "name": "_supplier",
          "type": "address"
        }
      ],
      "name": "getInventory",
      "outputs": [
        {
          "components": [
            {
              "internalType": "uint256",
              "name": "id",
              "type": "uint256"
            },
            {
              "internalType": "string",
              "name": "name",
              "type": "string"
            },
            {
              "internalType": "address",
              "name": "owner",
              "type": "address"
            },
            {
              "internalType": "uint256",
              "name": "quantity",
              "type": "uint256"
            }
          ],
          "internalType": "struct ItemFactory.Item[]",
          "name": "",
          "type": "tuple[]"
        }
      ],
      "stateMutability": "view",
      "type": "function"
    },
    {
      "inputs": [
        {
          "internalType": "address",
          "name": "_buyer",
          "type": "address"
        }
      ],
      "name": "getItems",
      "outputs": [
        {
          "components": [
            {
              "internalType": "uint256",
              "name": "id",
              "type": "uint256"
            },
            {
              "internalType": "string",
              "name": "name",
              "type": "string"
            },
            {
              "internalType": "address",
              "name": "owner",
              "type": "address"
            },
            {
              "internalType": "uint256",
              "name": "quantity",
              "type": "uint256"
            }
          ],
          "internalType": "struct ItemFactory.Item[]",
          "name": "",
          "type": "tuple[]"
        }
      ],
      "stateMutability": "view",
      "type": "function"
    },
    {
      "inputs": [
        {
          "internalType": "string",
          "name": "_name",
          "type": "string"
        }
      ],
      "name": "removeItem",
      "outputs": [],
      "stateMutability": "nonpayable",
      "type": "function"
    }
  ],
  "bytecode": "0x608060405260006001556001600655600160085534801561001f57600080fd5b50613b698061002f6000396000f3fe608060405234801561001057600080fd5b50600436106100c95760003560e01c806368dfa8ba116100815780638b87c5441161005b5780638b87c54414610162578063b2a851ed14610175578063e51bebd71461017d57600080fd5b806368dfa8ba1461012457806373a21afd146101375780637ad90db31461014f57600080fd5b80634ba1d6aa116100b25780634ba1d6aa146100eb5780634d73665514610109578063561496ba1461011c57600080fd5b8063128fdb48146100ce5780633d54eebb146100d8575b600080fd5b6100d6610185565b005b6100d66100e6366004610ba5565b610259565b6100f361032c565b6040516101009190610c7a565b60405180910390f35b6100f3610117366004610cf1565b6103e5565b6100f36104b3565b6100d6610132366004610ba5565b6105d1565b61013f61066f565b6040519015158152602001610100565b6100d661015d366004610d15565b610691565b6100f3610170366004610cf1565b61087c565b61013f61091c565b6100d6610938565b336000908152600460205260409020541561019f57600080fd5b6000336040516101ae90610a9d565b6001600160a01b039091168152602001604051809103906000f0801580156101da573d6000803e3d6000fd5b5060078054600181019091557fa66cc928b5edb82af9bd49922954155ab7b0942694bea4ce44661d9a8736c68801805473ffffffffffffffffffffffffffffffffffffffff19166001600160a01b038316179055600880543360009081526004602052604081208290559293509161025183610d7b565b919050555050565b33600090815260036020526040812054900361027457600080fd5b3360009081526003602052604090205460059061029390600190610d94565b815481106102a3576102a3610da7565b6000918252602090912001546040517f2eb923680000000000000000000000000000000000000000000000000000000081526001600160a01b0390911690632eb92368906102f79084903390600401610dbd565b600060405180830381600087803b15801561031157600080fd5b505af1158015610325573d6000803e3d6000fd5b5050505050565b6005546060908190156103e057600560008154811061034d5761034d610da7565b6000918252602082200154604080517f3bc330d200000000000000000000000000000000000000000000000000000000815290516001600160a01b0390921692633bc330d2926004808401938290030181865afa1580156103b2573d6000803e3d6000fd5b505050506040513d6000823e601f3d908101601f191682016040526103da9190810190610e9b565b91505090565b919050565b6001600160a01b03811660009081526004602052604090205460609060079061041090600190610d94565b8154811061042057610420610da7565b6000918252602082200154604080517f410d59cc00000000000000000000000000000000000000000000000000000000815290516001600160a01b039092169263410d59cc926004808401938290030181865afa158015610485573d6000803e3d6000fd5b505050506040513d6000823e601f3d908101601f191682016040526104ad9190810190610e9b565b92915050565b60606000805480602002602001604051908101604052809291908181526020016000905b828210156105c857838290600052602060002090600402016040518060800160405290816000820154815260200160018201805461051490610f5e565b80601f016020809104026020016040519081016040528092919081815260200182805461054090610f5e565b801561058d5780601f106105625761010080835404028352916020019161058d565b820191906000526020600020905b81548152906001019060200180831161057057829003601f168201915b505050918352505060028201546001600160a01b031660208083019190915260039092015460409091015290825260019290920191016104d7565b50505050905090565b3360009081526003602052604081205490036105ec57600080fd5b3360009081526003602052604090205460059061060b90600190610d94565b8154811061061b5761061b610da7565b6000918252602090912001546040517f03d39ab70000000000000000000000000000000000000000000000000000000081526001600160a01b03909116906303d39ab7906102f79084903390600401610dbd565b33600090815260036020526040812054810361068b5750600090565b50600190565b3360009081526004602052604081205490036106ac57600080fd5b6106ea6040518060400160405280600e81526020017f63616c6c6564206275794974656d000000000000000000000000000000000000815250610a04565b6001600160a01b03821660009081526003602052604081205460059061071290600190610d94565b8154811061072257610722610da7565b6000918252602090912001546040517fe105b3000000000000000000000000000000000000000000000000000000000081526001600160a01b039091169063e105b30090610774908590600401610f98565b6000604051808303816000875af1158015610793573d6000803e3d6000fd5b505050506040513d6000823e601f3d908101601f191682016040526107bb9190810190610fab565b336040808301829052600091825260046020529020549091506007906107e390600190610d94565b815481106107f3576107f3610da7565b6000918252602090912001546040517f189385130000000000000000000000000000000000000000000000000000000081526001600160a01b0390911690631893851390610845908490600401610fe0565b600060405180830381600087803b15801561085f57600080fd5b505af1158015610873573d6000803e3d6000fd5b50505050505050565b6001600160a01b0381166000908152600360205260409020546060906005906108a790600190610d94565b815481106108b7576108b7610da7565b6000918252602082200154604080517f5d7f850c00000000000000000000000000000000000000000000000000000000815290516001600160a01b0390921692635d7f850c926004808401938290030181865afa158015610485573d6000803e3d6000fd5b33600090815260046020526040812054810361068b5750600090565b336000908152600360205260409020541561095257600080fd5b60003360405161096190610aaa565b6001600160a01b039091168152602001604051809103906000f08015801561098d573d6000803e3d6000fd5b5060058054600181019091557f036b6384b5eca791c62761152d0c79bb0604c104a5fb6f4eb0703f3154bb3db001805473ffffffffffffffffffffffffffffffffffffffff19166001600160a01b038316179055600680543360009081526003602052604081208290559293509161025183610d7b565b610a7581604051602401610a189190610f98565b60408051601f198184030181529190526020810180517bffffffffffffffffffffffffffffffffffffffffffffffffffffffff167f41304fac00000000000000000000000000000000000000000000000000000000179052610a78565b50565b610a758160006a636f6e736f6c652e6c6f679050600080835160208501845afa505050565b610bd780610ff483390190565b611f6980611bcb83390190565b634e487b7160e01b600052604160045260246000fd5b6040516080810167ffffffffffffffff81118282101715610af057610af0610ab7565b60405290565b604051601f8201601f1916810167ffffffffffffffff81118282101715610b1f57610b1f610ab7565b604052919050565b600067ffffffffffffffff821115610b4157610b41610ab7565b50601f01601f191660200190565b600082601f830112610b6057600080fd5b8135610b73610b6e82610b27565b610af6565b818152846020838601011115610b8857600080fd5b816020850160208301376000918101602001919091529392505050565b600060208284031215610bb757600080fd5b813567ffffffffffffffff811115610bce57600080fd5b610bda84828501610b4f565b949350505050565b60005b83811015610bfd578181015183820152602001610be5565b50506000910152565b60008151808452610c1e816020860160208601610be2565b601f01601f19169290920160200192915050565b805182526000602082015160806020850152610c516080850182610c06565b90506001600160a01b036040840151166040850152606083015160608501528091505092915050565b6000602080830181845280855180835260408601915060408160051b870101925083870160005b82811015610ccf57603f19888603018452610cbd858351610c32565b94509285019290850190600101610ca1565b5092979650505050505050565b6001600160a01b0381168114610a7557600080fd5b600060208284031215610d0357600080fd5b8135610d0e81610cdc565b9392505050565b60008060408385031215610d2857600080fd5b8235610d3381610cdc565b9150602083013567ffffffffffffffff811115610d4f57600080fd5b610d5b85828601610b4f565b9150509250929050565b634e487b7160e01b600052601160045260246000fd5b600060018201610d8d57610d8d610d65565b5060010190565b818103818111156104ad576104ad610d65565b634e487b7160e01b600052603260045260246000fd5b604081526000610dd06040830185610c06565b90506001600160a01b03831660208301529392505050565b80516103e081610cdc565b600060808284031215610e0557600080fd5b610e0d610acd565b905081518152602082015167ffffffffffffffff811115610e2d57600080fd5b8201601f81018413610e3e57600080fd5b8051610e4c610b6e82610b27565b818152856020838501011115610e6157600080fd5b610e72826020830160208601610be2565b602084015250610e86905060408301610de8565b60408201526060820151606082015292915050565b60006020808385031215610eae57600080fd5b825167ffffffffffffffff80821115610ec657600080fd5b818501915085601f830112610eda57600080fd5b815181811115610eec57610eec610ab7565b8060051b610efb858201610af6565b9182528381018501918581019089841115610f1557600080fd5b86860192505b83831015610f5157825185811115610f335760008081fd5b610f418b89838a0101610df3565b8352509186019190860190610f1b565b9998505050505050505050565b600181811c90821680610f7257607f821691505b602082108103610f9257634e487b7160e01b600052602260045260246000fd5b50919050565b602081526000610d0e6020830184610c06565b600060208284031215610fbd57600080fd5b815167ffffffffffffffff811115610fd457600080fd5b610bda84828501610df3565b602081526000610d0e6020830184610c3256fe6080604052600060015534801561001557600080fd5b50604051610bd7380380610bd783398101604081905261003491610059565b600380546001600160a01b0319166001600160a01b0392909216919091179055610089565b60006020828403121561006b57600080fd5b81516001600160a01b038116811461008257600080fd5b9392505050565b610b3f806100986000396000f3fe608060405234801561001057600080fd5b50600436106100415760003560e01c80631893851314610046578063410d59cc1461005b578063561496ba14610079575b600080fd5b6100596100543660046106b4565b610081565b005b610063610351565b6040516100709190610832565b60405180910390f35b61006361046f565b60005b60045481101561025d576020808301516040516100a19201610894565b60405160208183030381529060405280519060200120600482815481106100ca576100ca6108b0565b90600052602060002090600402016001016040516020016100eb9190610900565b60405160208183030381529060405280519060200120148015610149575081604001516001600160a01b03166004828154811061012a5761012a6108b0565b60009182526020909120600260049092020101546001600160a01b0316145b1561024b576101b16040518060400160405280601981526020017f63757272656e74206275796572207175616e74697479203d20000000000000008152506004838154811061019a5761019a6108b0565b906000526020600020906004020160030154610584565b6000600482815481106101c6576101c66108b0565b90600052602060002090600402016003015490508060016101e7919061098c565b600483815481106101fa576101fa6108b0565b9060005260206000209060040201600301819055507ff7a600236d5efb37da0985b9fbae52c762c2b9b9ae84d2841d01ff01909961c58360405161023e91906109a5565b60405180910390a1505050565b80610255816109bf565b915050610084565b50600480546001810182556000829052825191027f8a35acfbc15ff81a39ae7d344fd709f28e8600b4aa8c65c6b64bfe7fe36bd19b810191825560208301518392917f8a35acfbc15ff81a39ae7d344fd709f28e8600b4aa8c65c6b64bfe7fe36bd19c01906102cc9082610a27565b506040828101516002830180547fffffffffffffffffffffffff0000000000000000000000000000000000000000166001600160a01b03909216919091179055606090920151600390910155517ff7a600236d5efb37da0985b9fbae52c762c2b9b9ae84d2841d01ff01909961c5906103469083906109a5565b60405180910390a150565b60606004805480602002602001604051908101604052809291908181526020016000905b828210156104665783829060005260206000209060040201604051806080016040529081600082015481526020016001820180546103b2906108c6565b80601f01602080910402602001604051908101604052809291908181526020018280546103de906108c6565b801561042b5780601f106104005761010080835404028352916020019161042b565b820191906000526020600020905b81548152906001019060200180831161040e57829003601f168201915b505050918352505060028201546001600160a01b03166020808301919091526003909201546040909101529082526001929092019101610375565b50505050905090565b60606000805480602002602001604051908101604052809291908181526020016000905b828210156104665783829060005260206000209060040201604051806080016040529081600082015481526020016001820180546104d0906108c6565b80601f01602080910402602001604051908101604052809291908181526020018280546104fc906108c6565b80156105495780601f1061051e57610100808354040283529160200191610549565b820191906000526020600020905b81548152906001019060200180831161052c57829003601f168201915b505050918352505060028201546001600160a01b03166020808301919091526003909201546040909101529082526001929092019101610493565b6105f7828260405160240161059a929190610ae7565b60408051601f198184030181529190526020810180517bffffffffffffffffffffffffffffffffffffffffffffffffffffffff167fb60e72cc000000000000000000000000000000000000000000000000000000001790526105fb565b5050565b61060481610607565b50565b60006a636f6e736f6c652e6c6f679050600080835160208501845afa505050565b634e487b7160e01b600052604160045260246000fd5b6040516080810167ffffffffffffffff8111828210171561066157610661610628565b60405290565b604051601f8201601f1916810167ffffffffffffffff8111828210171561069057610690610628565b604052919050565b80356001600160a01b03811681146106af57600080fd5b919050565b600060208083850312156106c757600080fd5b823567ffffffffffffffff808211156106df57600080fd5b90840190608082870312156106f357600080fd5b6106fb61063e565b82358152838301358281111561071057600080fd5b8301601f8101881361072157600080fd5b80358381111561073357610733610628565b610745601f8201601f19168701610667565b9350808452888682840101111561075b57600080fd5b808683018786013760008682860101525050818482015261077e60408401610698565b6040820152606083013560608201528094505050505092915050565b60005b838110156107b557818101518382015260200161079d565b50506000910152565b600081518084526107d681602086016020860161079a565b601f01601f19169290920160200192915050565b80518252600060208201516080602085015261080960808501826107be565b90506001600160a01b036040840151166040850152606083015160608501528091505092915050565b6000602080830181845280855180835260408601915060408160051b870101925083870160005b8281101561088757603f198886030184526108758583516107ea565b94509285019290850190600101610859565b5092979650505050505050565b600082516108a681846020870161079a565b9190910192915050565b634e487b7160e01b600052603260045260246000fd5b600181811c908216806108da57607f821691505b6020821081036108fa57634e487b7160e01b600052602260045260246000fd5b50919050565b600080835461090e816108c6565b60018281168015610926576001811461093b5761096a565b60ff198416875282151583028701945061096a565b8760005260208060002060005b858110156109615781548a820152908401908201610948565b50505082870194505b50929695505050505050565b634e487b7160e01b600052601160045260246000fd5b8082018082111561099f5761099f610976565b92915050565b6020815260006109b860208301846107ea565b9392505050565b6000600182016109d1576109d1610976565b5060010190565b601f821115610a2257600081815260208120601f850160051c810160208610156109ff5750805b601f850160051c820191505b81811015610a1e57828155600101610a0b565b5050505b505050565b815167ffffffffffffffff811115610a4157610a41610628565b610a5581610a4f84546108c6565b846109d8565b602080601f831160018114610a8a5760008415610a725750858301515b600019600386901b1c1916600185901b178555610a1e565b600085815260208120601f198616915b82811015610ab957888601518255948401946001909101908401610a9a565b5085821015610ad75787850151600019600388901b60f8161c191681555b5050505050600190811b01905550565b604081526000610afa60408301856107be565b9050826020830152939250505056fea2646970667358221220b34a769b8b5f9f5a34aa3142da76773328c36a5c3a034b04af97c2860cca416a64736f6c634300081300336080604052600060015534801561001557600080fd5b50604051611f69380380611f6983398101604081905261003491610059565b600380546001600160a01b0319166001600160a01b0392909216919091179055610089565b60006020828403121561006b57600080fd5b81516001600160a01b038116811461008257600080fd5b9392505050565b611ed1806100986000396000f3fe608060405234801561001057600080fd5b506004361061007d5760003560e01c80634272ee181161005b5780634272ee18146100c8578063561496ba146100eb5780635d7f850c146100f3578063e105b300146100fb57600080fd5b806303d39ab7146100825780632eb92368146100975780633bc330d2146100aa575b600080fd5b610095610090366004611884565b61011b565b005b6100956100a5366004611884565b610478565b6100b26107b1565b6040516100bf919061197a565b60405180910390f35b6100db6100d63660046119dc565b6108cf565b6040516100bf94939291906119f5565b6100b261099d565b6100b2610ab2565b61010e610109366004611a2a565b610bc7565b6040516100bf9190611a67565b60035481906001600160a01b0380831691161461013757600080fd5b6101418383610f6f565b60005b600454811015610472578360405160200161015f9190611a7a565b604051602081830303815290604052805190602001206004828154811061018857610188611a96565b90600052602060002090600402016001016040516020016101a99190611ae6565b6040516020818303038152906040528051906020012003610460576000600482815481106101d9576101d9611a96565b9060005260206000209060040201600301549050600181111561037157610201600182611b72565b905060006004838154811061021857610218611a96565b90600052602060002090600402016040518060800160405290816000820154815260200160018201805461024b90611aac565b80601f016020809104026020016040519081016040528092919081815260200182805461027790611aac565b80156102c45780601f10610299576101008083540402835291602001916102c4565b820191906000526020600020905b8154815290600101906020018083116102a757829003601f168201915b505050918352505060028201546001600160a01b03166020820152600390910154604090910152606081018390526004805491925082918590811061030b5761030b611a96565b90600052602060002090600402016000820151816000015560208201518160010190816103389190611bd3565b5060408201516002820180546001600160a01b0319166001600160a01b039092169190911790556060909101516003909101555061045e565b6004805461038190600190611b72565b8154811061039157610391611a96565b9060005260206000209060040201600483815481106103b2576103b2611a96565b6000918252602090912082546004909202019081556001808201906103d990840182611c93565b5060028281015490820180546001600160a01b0319166001600160a01b03909216919091179055600391820154910155600480548061041a5761041a611d6e565b600082815260208120600460001990930192830201818155906104406001830182611793565b506002810180546001600160a01b0319169055600060039091015590555b505b8061046a81611d84565b915050610144565b50505050565b60035481906001600160a01b0380831691161461049457600080fd5b60006104a08484611311565b905060005b6004548110156106a557846040516020016104c09190611a7a565b60405160208183030381529060405280519060200120600482815481106104e9576104e9611a96565b906000526020600020906004020160010160405160200161050a9190611ae6565b604051602081830303815290604052805190602001201480156105645750836001600160a01b03166004828154811061054557610545611a96565b60009182526020909120600260049092020101546001600160a01b0316145b15610693576105cc6040518060400160405280601c81526020017f63757272656e7420737570706c696572207175616e74697479203d2000000000815250600483815481106105b5576105b5611a96565b906000526020600020906004020160030154611680565b6000600482815481106105e1576105e1611a96565b90600052602060002090600402016003015490508060016106029190611d9d565b6004838154811061061557610615611a96565b9060005260206000209060040201600301819055507f78630ff8575a1377c7605d282a9f5f051114ea49da43d419fb89d939e79c950d8686846004868154811061066157610661611a96565b9060005260206000209060040201600301546040516106839493929190611db0565b60405180910390a1505050505050565b8061069d81611d84565b9150506104a5565b5060408051808201909152601d81527f66726f6d20537570706c696572206974656d73206c656e677468203d2000000060208201526000546106e79190611680565b6004600082815481106106fc576106fc611a96565b60009182526020808320845460018181018755958552919093206004928302909301805491909202909201918255918181019061073b90840182611c93565b5060028281015490820180546001600160a01b0319166001600160a01b039092169190911790556003918201549101556040517f78630ff8575a1377c7605d282a9f5f051114ea49da43d419fb89d939e79c950d906107a290869086908590600190611db0565b60405180910390a1505b505050565b60606000805480602002602001604051908101604052809291908181526020016000905b828210156108c657838290600052602060002090600402016040518060800160405290816000820154815260200160018201805461081290611aac565b80601f016020809104026020016040519081016040528092919081815260200182805461083e90611aac565b801561088b5780601f106108605761010080835404028352916020019161088b565b820191906000526020600020905b81548152906001019060200180831161086e57829003601f168201915b505050918352505060028201546001600160a01b031660208083019190915260039092015460409091015290825260019290920191016107d5565b50505050905090565b600481815481106108df57600080fd5b6000918252602090912060049091020180546001820180549193509061090490611aac565b80601f016020809104026020016040519081016040528092919081815260200182805461093090611aac565b801561097d5780601f106109525761010080835404028352916020019161097d565b820191906000526020600020905b81548152906001019060200180831161096057829003601f168201915b50505050600283015460039093015491926001600160a01b031691905084565b60606000805480602002602001604051908101604052809291908181526020016000905b828210156108c65783829060005260206000209060040201604051806080016040529081600082015481526020016001820180546109fe90611aac565b80601f0160208091040260200160405190810160405280929190818152602001828054610a2a90611aac565b8015610a775780601f10610a4c57610100808354040283529160200191610a77565b820191906000526020600020905b815481529060010190602001808311610a5a57829003601f168201915b505050918352505060028201546001600160a01b031660208083019190915260039092015460409091015290825260019290920191016109c1565b60606004805480602002602001604051908101604052809291908181526020016000905b828210156108c6578382906000526020600020906004020160405180608001604052908160008201548152602001600182018054610b1390611aac565b80601f0160208091040260200160405190810160405280929190818152602001828054610b3f90611aac565b8015610b8c5780601f10610b6157610100808354040283529160200191610b8c565b820191906000526020600020905b815481529060010190602001808311610b6f57829003601f168201915b505050918352505060028201546001600160a01b03166020808301919091526003909201546040909101529082526001929092019101610ad6565b610bfb6040518060800160405280600081526020016060815260200160006001600160a01b03168152602001600081525090565b610c3a6040518060400160405280601081526020017f6e616d6520746f2073656c6c2069732000000000000000000000000000000000815250836116f7565b60005b60045481101561007d5782604051602001610c589190611a7a565b6040516020818303038152906040528051906020012060048281548110610c8157610c81611a96565b9060005260206000209060040201600101604051602001610ca29190611ae6565b6040516020818303038152906040528051906020012003610f5d57600060048281548110610cd257610cd2611a96565b906000526020600020906004020160405180608001604052908160008201548152602001600182018054610d0590611aac565b80601f0160208091040260200160405190810160405280929190818152602001828054610d3190611aac565b8015610d7e5780601f10610d5357610100808354040283529160200191610d7e565b820191906000526020600020905b815481529060010190602001808311610d6157829003601f168201915b505050918352505060028201546001600160a01b031660208201526003909101546040909101526004805491925060019184908110610dbf57610dbf611a96565b9060005260206000209060040201600301541115610e69576060810151610de7600182611b72565b60608301526004805483919085908110610e0357610e03611a96565b9060005260206000209060040201600082015181600001556020820151816001019081610e309190611bd3565b5060408201516002820180546001600160a01b0319166001600160a01b0390921691909117905560609091015160039091015550610f56565b60048054610e7990600190611b72565b81548110610e8957610e89611a96565b906000526020600020906004020160048381548110610eaa57610eaa611a96565b600091825260209091208254600490920201908155600180820190610ed190840182611c93565b5060028281015490820180546001600160a01b0319166001600160a01b039092169190911790556003918201549101556004805480610f1257610f12611d6e565b60008281526020812060046000199093019283020181815590610f386001830182611793565b506002810180546001600160a01b0319169055600060039091015590555b9392505050565b80610f6781611d84565b915050610c3d565b60005b6000548110156107ac5782604051602001610f8d9190611a7a565b6040516020818303038152906040528051906020012060008281548110610fb657610fb6611a96565b9060005260206000209060040201600101604051602001610fd79190611ae6565b604051602081830303815290604052805190602001201480156110315750816001600160a01b03166000828154811061101257611012611a96565b60009182526020909120600260049092020101546001600160a01b0316145b156112ff57611065604051806060016040528060318152602001611e3960319139600083815481106105b5576105b5611a96565b600080828154811061107957611079611a96565b90600052602060002090600402016003015490506001811115611210576110a1600182611b72565b905060008083815481106110b7576110b7611a96565b9060005260206000209060040201604051806080016040529081600082015481526020016001820180546110ea90611aac565b80601f016020809104026020016040519081016040528092919081815260200182805461111690611aac565b80156111635780601f1061113857610100808354040283529160200191611163565b820191906000526020600020905b81548152906001019060200180831161114657829003601f168201915b505050918352505060028201546001600160a01b0316602082015260039091015460409091015260608101839052600080549192508291859081106111aa576111aa611a96565b90600052602060002090600402016000820151816000015560208201518160010190816111d79190611bd3565b5060408201516002820180546001600160a01b0319166001600160a01b03909216919091179055606090910151600390910155506112fd565b6000805461122090600190611b72565b8154811061123057611230611a96565b90600052602060002090600402016000838154811061125157611251611a96565b60009182526020909120825460049092020190815560018082019061127890840182611c93565b5060028281015490820180546001600160a01b0319166001600160a01b0390921691909117905560039182015491015560008054806112b9576112b9611d6e565b600082815260208120600460001990930192830201818155906112df6001830182611793565b506002810180546001600160a01b0319169055600060039091015590555b505b8061130981611d84565b915050610f72565b6000805b6000548110156114e057836040516020016113309190611a7a565b604051602081830303815290604052805190602001206000828154811061135957611359611a96565b906000526020600020906004020160010160405160200161137a9190611ae6565b604051602081830303815290604052805190602001201480156113d45750826001600160a01b0316600082815481106113b5576113b5611a96565b60009182526020909120600260049092020101546001600160a01b0316145b156114ce57611408604051806060016040528060328152602001611e6a60329139600083815481106105b5576105b5611a96565b600080828154811061141c5761141c611a96565b906000526020600020906004020160030154905080600161143d9190611d9d565b6000838154811061145057611450611a96565b9060005260206000209060040201600301819055507fe599ec91bb3f9f582781f6ebcf755da53708644e7b661764376bf0f0245343998585846000868154811061149c5761149c611a96565b9060005260206000209060040201600301546040516114be9493929190611db0565b60405180910390a150905061167a565b806114d881611d84565b915050611315565b5060408051608081018252600180548252602082018681526001600160a01b03861693830193909352606082018190526000805491820181558052815160049091027f290decd9548b62a8d60345a988386fc84ba6bc95484008f6362f93160ef3e56381019182559251919290917f290decd9548b62a8d60345a988386fc84ba6bc95484008f6362f93160ef3e5649091019061157d9082611bd3565b50604082810151600283810180546001600160a01b03199081166001600160a01b0394851617909155606090950151600390940193909355600154600090815260209384528281208054909516918716919091179093558051808201909152601981527f66726f6d204974656d206974656d73206c656e677468203d20000000000000009181019190915290546116149190611680565b6001805490600061162483611d84565b91905055507fe599ec91bb3f9f582781f6ebcf755da53708644e7b661764376bf0f024534399838360015460016040516116619493929190611db0565b60405180910390a1600180546116779190611b72565b90505b92915050565b6116f38282604051602401611696929190611de8565b60408051601f198184030181529190526020810180517bffffffffffffffffffffffffffffffffffffffffffffffffffffffff167fb60e72cc00000000000000000000000000000000000000000000000000000000179052611766565b5050565b6116f3828260405160240161170d929190611e0a565b60408051601f198184030181529190526020810180517bffffffffffffffffffffffffffffffffffffffffffffffffffffffff167f4b5c4277000000000000000000000000000000000000000000000000000000001790525b61176f81611772565b50565b60006a636f6e736f6c652e6c6f679050600080835160208501845afa505050565b50805461179f90611aac565b6000825580601f106117af575050565b601f01602090049060005260206000209081019061176f91905b808211156117dd57600081556001016117c9565b5090565b634e487b7160e01b600052604160045260246000fd5b600082601f83011261180857600080fd5b813567ffffffffffffffff80821115611823576118236117e1565b604051601f8301601f19908116603f0116810190828211818310171561184b5761184b6117e1565b8160405283815286602085880101111561186457600080fd5b836020870160208301376000602085830101528094505050505092915050565b6000806040838503121561189757600080fd5b823567ffffffffffffffff8111156118ae57600080fd5b6118ba858286016117f7565b92505060208301356001600160a01b03811681146118d757600080fd5b809150509250929050565b60005b838110156118fd5781810151838201526020016118e5565b50506000910152565b6000815180845261191e8160208601602086016118e2565b601f01601f19169290920160200192915050565b8051825260006020820151608060208501526119516080850182611906565b90506001600160a01b036040840151166040850152606083015160608501528091505092915050565b6000602080830181845280855180835260408601915060408160051b870101925083870160005b828110156119cf57603f198886030184526119bd858351611932565b945092850192908501906001016119a1565b5092979650505050505050565b6000602082840312156119ee57600080fd5b5035919050565b848152608060208201526000611a0e6080830186611906565b6001600160a01b03949094166040830152506060015292915050565b600060208284031215611a3c57600080fd5b813567ffffffffffffffff811115611a5357600080fd5b611a5f848285016117f7565b949350505050565b6020815260006116776020830184611932565b60008251611a8c8184602087016118e2565b9190910192915050565b634e487b7160e01b600052603260045260246000fd5b600181811c90821680611ac057607f821691505b602082108103611ae057634e487b7160e01b600052602260045260246000fd5b50919050565b6000808354611af481611aac565b60018281168015611b0c5760018114611b2157611b50565b60ff1984168752821515830287019450611b50565b8760005260208060002060005b85811015611b475781548a820152908401908201611b2e565b50505082870194505b50929695505050505050565b634e487b7160e01b600052601160045260246000fd5b8181038181111561167a5761167a611b5c565b601f8211156107ac57600081815260208120601f850160051c81016020861015611bac5750805b601f850160051c820191505b81811015611bcb57828155600101611bb8565b505050505050565b815167ffffffffffffffff811115611bed57611bed6117e1565b611c0181611bfb8454611aac565b84611b85565b602080601f831160018114611c365760008415611c1e5750858301515b600019600386901b1c1916600185901b178555611bcb565b600085815260208120601f198616915b82811015611c6557888601518255948401946001909101908401611c46565b5085821015611c835787850151600019600388901b60f8161c191681555b5050505050600190811b01905550565b818103611c9e575050565b611ca88254611aac565b67ffffffffffffffff811115611cc057611cc06117e1565b611cce81611bfb8454611aac565b6000601f821160018114611d025760008315611cea5750848201545b600019600385901b1c1916600184901b178455611d67565b600085815260209020601f19841690600086815260209020845b83811015611d3c5782860154825560019586019590910190602001611d1c565b5085831015611d5a5781850154600019600388901b60f8161c191681555b50505060018360011b0184555b5050505050565b634e487b7160e01b600052603160045260246000fd5b600060018201611d9657611d96611b5c565b5060010190565b8082018082111561167a5761167a611b5c565b608081526000611dc36080830187611906565b6001600160a01b03959095166020830152506040810192909252606090910152919050565b604081526000611dfb6040830185611906565b90508260208301529392505050565b604081526000611e1d6040830185611906565b8281036020840152611e2f8185611906565b9594505050505056fe63757272656e74206974656d207175616e746974792028696e2072656d6f76654974656d2066756e6374696f6e29203d2063757272656e74206974656d207175616e746974792028696e206372656174654974656d2066756e6374696f6e29203d2020a2646970667358221220804989b242d97190ff680f4312d99ace193d05e21044db1630f52ea2873609c864736f6c63430008130033a26469706673582212208024afc3501a017606c3fe8c0a546f5fecb21d953f43a268d27fc3a223a256d164736f6c63430008130033",
  "linkReferences": {},
  "deployedLinkReferences": {}
}